0000100010010000000000000000001A2000000000000000STDENCIK ENCIK SALMAN HAMID                                    000000000000000    0000000000000000000000000000000000000000000000000000000000000000000    000000000000000 000000000000000 000000000000000 000000000000000 000000000000000 000000000000000 00000000000000000000000               00000000000                001000SALMAN HAMID                                              MY                           00WADIAHAL-WADIAH                0                                                                                                                                                                                                                                                                                                                                                                                                                                                                                                20240109190727
0000100010020000000000000000001A2000000000000000STD                                                            000000000000000    0000000000000000000000000000000000000000000000000000000000000000000    000000000000000 000000000000000 000000000000000 000000000000000 000000000000000 000000000000000 00000000000000000000000               00000000000                001000SALMAN HAMID                                              MY                           00WADIAHAL-WADIAH                0                                                                                                                                                                                                                                                                                                                                                                                                                                                                                                20240109190727
0000100010030000000000000000001A2000000000000000STD                                                            000000000000000    0000000000000000000000000000000000000000000000000000000000000000000    000000000000000 000000000000000 000000000000000 000000000000000 000000000000000 000000000000000 00000000000000000000000               00000000000                001000SALMAN HAMID                                              MY                           00WADIAHAL-WADIAH                0                                                                                                                                                                                                                                                                                                                                                                                                                                                                                                20240109190727
0000100010040000000000000000001A2000000000000000STD                                                            000000000000000    0000000000000000000000000000000000000000000000000000000000000000000    000000000000000 000000000000000 000000000000000 000000000000000 000000000000000 000000000000000 00000000000000000000000               00000000000                001000SALMAN HAMID                                              MY                           00WADIAHAL-WADIAH                0                                                                                                                                                                                                                                                                                                                                                                                                                                                                                                20240109190727
0000100010050000000000000000001A2000000000000000STD                                                            000000000000000    0000000000000000000000000000000000000000000000000000000000000000000    000000000000000 000000000000000 000000000000000 000000000000000 000000000000000 000000000000000 00000000000000000000000               00000000000                001000SALMAN HAMID                                              MY                           00WADIAHAL-WADIAH                0                                                                                                                                                                                                                                                                                                                                                                                                                                                                                                20240109190727
0000100010060000000000000000001A2000000000000000STD                                                            000000000000000    0000000000000000000000000000000000000000000000000000000000000000000    000000000000000 000000000000000 000000000000000 000000000000000 000000000000000 000000000000000 00000000000000000000000               00000000000                001000SALMAN HAMID                                              MY                           00WADIAHAL-WADIAH                0                                                                                                                                                                                                                                                                                                                                                                                                                                                                                                20240109190727
0000100010070000000000000000002B2000000000000000STDSILA LAYARI WWW.BANKISLAM.COM.MY UNTUK MENDAPATKAN INFO TERK000000000000000    0000000000000000000000000000000000000000000000000000000000000000000    000000000000000 000000000000000 000000000000000 000000000000000 000000000000000 000000000000000 00000000000000000000000               00000000000                001000SALMAN HAMID                                              MY                           00WADIAHAL-WADIAH                0                                                                                                                                                                                                                                                                                                                                                                                                                                                                                                20240109190727
0000100010080000000000000000002B2000000000000000STDINI BERKENAAN TERMA DAN SYARAT KAD KREDIT-I BANK ISLAM.     000000000000000    0000000000000000000000000000000000000000000000000000000000000000000    000000000000000 000000000000000 000000000000000 000000000000000 000000000000000 000000000000000 00000000000000000000000               00000000000                001000SALMAN HAMID                                              MY                           00WADIAHAL-WADIAH                0                                                                                                                                                                                                                                                                                                                                                                                                                                                                                                20240109190727
0000100010090000000000000000002B2000000000000000STD                                                            000000000000000    0000000000000000000000000000000000000000000000000000000000000000000    000000000000000 000000000000000 000000000000000 000000000000000 000000000000000 000000000000000 00000000000000000000000               00000000000                001000SALMAN HAMID                                              MY                           00WADIAHAL-WADIAH                0                                                                                                                                                                                                                                                                                                                                                                                                                                                                                                20240109190727
0000100010100000000000000000002B2000000000000000STD                                                            000000000000000    0000000000000000000000000000000000000000000000000000000000000000000    000000000000000 000000000000000 000000000000000 000000000000000 000000000000000 000000000000000 00000000000000000000000               00000000000                001000SALMAN HAMID                                              MY                           00WADIAHAL-WADIAH                0                                                                                                                                                                                                                                                                                                                                                                                                                                                                                                20240109190727
0000100010110000000000000000002B2000000000000000STD                                                            000000000000000    0000000000000000000000000000000000000000000000000000000000000000000    000000000000000 000000000000000 000000000000000 000000000000000 000000000000000 000000000000000 00000000000000000000000               00000000000                001000SALMAN HAMID                                              MY                           00WADIAHAL-WADIAH                0                                                                                                                                                                                                                                                                                                                                                                                                                                                                                                20240109190727
0000100010120000000000000000002F2000000000000000STD19101060000                                                 000000000000000    0000000000000000000000000000000000000000000000000000000000000000000    000000000000000 000000000000000 000000000000000 000000000000000 000000000000000 000000000000000 00000000000000000000000               00000000000                002000SALMAN HAMID                                              MY                           00WADIAHAL-WADIAH                3                                                                                                                                                                                                                                                                                                                                                                                                                                                                                                20240109190727
0000100010130000000000000000002G2000000000000000STD19101060010                                                 000000000000000    0000000000000000000000000000000000000000000000000000000000000000000    000000000000000 000000000000000 000000000000000 000000000000000 000000000000000 000000000000000 00000000000000000000000               00000000000                002000SALMAN HAMID                                              MY                           00WADIAHAL-WADIAH                3                                                                                                                                                                                                                                                                                                                                                                                                                                                                                                20240109190727
0000100010140004695550000000402H2100000000000000STDPREVIOUS BALANCE                                            000000000686470    0000000000000000000000000000000000000000000000000000000000000000000    000000000000000 000000000000000 000000000000000 000000000000000 000000000000000 000000000000000 00000000000000000000000               00000000000                002000SALMAN HAMID                                              MY                           00WADIAHAL-WADIAH                3                                                                                                                                                                                                                                                                                                                                                                                                                                                                                                20240109190727
0000100010150004695550000000402H2000000000000000STD4695 5500 0000 0402                                         000000000500000    0004695550000000402000000000000000000000000000000000000000000000000    000000000000000 000000000000000 000000000000000 000000000000000 000000000000000 000000000000000 00000000000000000000000               00000000000                002000SALMAN HAMID                                              MY                           00WADIAHAL-WADIAH                3                                                                                                                                                                                                                                                                                                                                                                                                                                                                                                20240109190727
0000100010000004695550000000402H2800000000000000STD4695 5500 0000 0402                                         000000000500000    0004695550000000402000000000000000000000000000000000000000000000000    000000000000000 000000000000000 000000000000000 000000000000000 000000000000000 000000000000000 00000000000000000000000               00000000000                002000SALMAN HAMID                                              MY                           00WADIAHAL-WADIAH                3                                                                                                                                                                                                                                                                                                                                                                                                                                                                                                20240109190727
0000100010019999999999999999001L2000000000000000STDSUB TOTAL                                                   000000000686470    0000000000000000000000000000000000000000000000000000000000000000000    000000000000000 000000000000000 000000000000000 000000000000000 000000000000000 000000000000000 00000000000000000000000               00000000000                002000SALMAN HAMID                                              MY                           00WADIAHAL-WADIAH                3                                                                                                                                                                                                                                                                                                                                                                                                                                                                                                20240109190727
0000100010029999999999999999002M2000000000000000STDPRT                                                         000000000000000    0000000000000000000000000000000000000000000000000000000000000000000 PRT000000000686470 000000000000000 000000000000000 000000000000000 000000000000000 000000000000000 00000000000000000000000               00000000000                001000SALMAN HAMID                                              MY                           00WADIAHAL-WADIAH                3                                                                                                                                                                                                                                                                                                                                                                                                                                                                                                20240109190727
0000100010039999999999999999003N2000000000000000STDCREDIT LIMIT                                                000000000500000    0000000000000000000000000000000000000000000000000000000000000000000    000000000000000 000000000000000 000000000000000 000000000000000 000000000000000 000000000000000 00000000000000000000000               00000000000                001000SALMAN HAMID                                              MY                           00WADIAHAL-WADIAH                3                                                                                                                                                                                                                                                                                                                                                                                                                                                                                                20240109190727
0000100010049999999999999999004N2200000000000000STDPAST DUE                                                    000000000406470    0000000000000000000000000000000000000000000000000000000000000000000    000000000000000 000000000000000 000000000000000 000000000000000 000000000000000 000000000000000 00000000000000000000000               00000000000                001000SALMAN HAMID                                              MY                           00WADIAHAL-WADIAH                3                                                                                                                                                                                                                                                                                                                                                                                                                                                                                                20240109190727
0000100010059999999999999999005N2400000000000000STDMINIMUM AMOUNT DUE                                          000000000406470    0000000000000000000000000000000000000000000000000000000000000000000    000000000000000 000000000000000 000000000000000 000000000000000 000000000000000 000000000000000 00000000000000000000000               00000000000                001000SALMAN HAMID                                              MY                           00WADIAHAL-WADIAH                3                                                                                                                                                                                                                                                                                                                                                                                                                                                                                                20240109190727
0000100010069999999999999999006O2000000000000000STD                                                            000000000000000    0000000000000000000000000000000000000000000000000000000000000000000    000000000000000 000000000000000 000000000000000 000000000000000 000000000000000 000000000000000 00000000000000000000000               00000000000                001000SALMAN HAMID                                              MY                           00WADIAHAL-WADIAH                3                                                                                                                                                                                                                                                                                                                                                                                                                                                                                                20240109190727
0000100010079999999999999999007O2000000000000000STD                                                            000000000000000    0000000000000000000000000000000000000000000000000000000000000000000    000000000000000 000000000000000 000000000000000 000000000000000 000000000000000 000000000000000 00000000000000000000000               00000000000                001000SALMAN HAMID                                              MY                           00WADIAHAL-WADIAH                3                                                                                                                                                                                                                                                                                                                                                                                                                                                                                                20240109190727
0000100010089999999999999999008O2000000000000000STD                                                            000000000000000    0000000000000000000000000000000000000000000000000000000000000000000    000000000000000 000000000000000 000000000000000 000000000000000 000000000000000 000000000000000 00000000000000000000000               00000000000                001000SALMAN HAMID                                              MY                           00WADIAHAL-WADIAH                3                                                                                                                                                                                                                                                                                                                                                                                                                                                                                                20240109190727
0000100010099999999999999999009O2000000000000000STD                                                            000000000000000    0000000000000000000000000000000000000000000000000000000000000000000    000000000000000 000000000000000 000000000000000 000000000000000 000000000000000 000000000000000 00000000000000000000000               00000000000                001000SALMAN HAMID                                              MY                           00WADIAHAL-WADIAH                3                                                                                                                                                                                                                                                                                                                                                                                                                                                                                                20240109190727
0000100010109999999999999999010O2000000000000000STD                                                            000000000000000    0000000000000000000000000000000000000000000000000000000000000000000    000000000000000 000000000000000 000000000000000 000000000000000 000000000000000 000000000000000 00000000000000000000000               00000000000                001000SALMAN HAMID                                              MY                           00WADIAHAL-WADIAH                3                                                                                                                                                                                                                                                                                                                                                                                                                                                                                                20240109190727
0000100010119999999999999999011Q2000000000000000STDKETAHUI TANGGUNGJAWAB & LIABILITI AHLI KAD (DEBIT-I & KREDIT000000000000000    0000000000000000000000000000000000000000000000000000000000000000000    000000000000000 000000000000000 000000000000000 000000000000000 000000000000000 000000000000000 00000000000000000000000               00000000000                001000SALMAN HAMID                                              MY                           00WADIAHAL-WADIAH                3                                                                                                                                                                                                                                                                                                                                                                                                                                                                                                20240109190727
0000100010129999999999999999012Q2000000000000000STD-I) UNTUK MENGURANGKAN RISIKO URUS NIAGATANPA KEBENARAN. INF000000000000000    0000000000000000000000000000000000000000000000000000000000000000000    000000000000000 000000000000000 000000000000000 000000000000000 000000000000000 000000000000000 00000000000000000000000               00000000000                001000SALMAN HAMID                                              MY                           00WADIAHAL-WADIAH                3                                                                                                                                                                                                                                                                                                                                                                                                                                                                                                20240109190727
0000100010139999999999999999013Q2000000000000000STDO LANJUT, HTTPS://WWW.BANKISLAM.COM/TGJWBAHLIKAD-I/         000000000000000    0000000000000000000000000000000000000000000000000000000000000000000    000000000000000 000000000000000 000000000000000 000000000000000 000000000000000 000000000000000 00000000000000000000000               00000000000                001000SALMAN HAMID                                              MY                           00WADIAHAL-WADIAH                3                                                                                                                                                                                                                                                                                                                                                                                                                                                                                                20240109190727
0000100010149999999999999999014Q2000000000000000STD                                                            000000000000000    0000000000000000000000000000000000000000000000000000000000000000000    000000000000000 000000000000000 000000000000000 000000000000000 000000000000000 000000000000000 00000000000000000000000               00000000000                001000SALMAN HAMID                                              MY                           00WADIAHAL-WADIAH                3                                                                                                                                                                                                                                                                                                                                                                                                                                                                                                20240109190727
0000100010159999999999999999015Q2000000000000000STD                                                            000000000000000    0000000000000000000000000000000000000000000000000000000000000000000    000000000000000 000000000000000 000000000000000 000000000000000 000000000000000 000000000000000 00000000000000000000000               00000000000                001000SALMAN HAMID                                              MY                           00WADIAHAL-WADIAH                3                                                                                                                                                                                                                                                                                                                                                                                                                                                                                                20240109190727
0000100010160000000000000000006F2100000000000000STDPAYMENT ADVICE                                              000000000000000    0004695550000000402000000000000191010612307151230804000000000406470    000000000000000 000000000000000 000000000000000 000000000000000 000000000686470 000000000000000 00000000000000000000000               00000000000                002000SALMAN HAMID                                              MY                           00WADIAHAL-WADIAH                0                                                                                                                                                                                                                                                                                                                                                                                                                                                                                                20240109190727
0000100010170000000000000000004E2000000000000000STDTRANSACTION SUMMARY                                         000000000000000    0000000000000000000000000000000000000000000000000000000000000406470    000000000686470 000000000000000 000000000000000 000000000000000 000000000686470 000000000000000 00000000000000000000000               00000000000                001000SALMAN HAMID                                              MY                           00WADIAHAL-WADIAH                0                                                                                                                                                                                                                                                                                                                                                                                                                                                                                                20240109190727
0000100010180000000000000000004E2700000000000000STDPOINT CARRY FROM PREVIOUS MONTH                             000000000000000    0000000000000000000000000000000000000000000000000000000000000000000    000000000000000 000000000000000 000000000000000 000000000000000 000000000000000 000000000000000 00000000000000000000000               00000000000                001000SALMAN HAMID                                              MY                           00WADIAHAL-WADIAH                3                                                                                                                                                                                                                                                                                                                                                                                                                                                                                                20240109190727
0000100010190000000000000000004E2700000000000000STDPOINT EARN (CURRENT MONTH)                                  000000000000000    0000000000000000000000000000000000000000000000000000000000000000000    000000000000000 000000000000000 000000000000000 000000000000000 000000000000000 000000000000000 00000000000000000000000               00000000000                001000SALMAN HAMID                                              MY                           00WADIAHAL-WADIAH                3                                                                                                                                                                                                                                                                                                                                                                                                                                                                                                20240109190727
0000100010200000000000000000004E2700000000000000STDPOINT REDEEM (CURRENT MONTH)                                000000000000000    0000000000000000000000000000000000000000000000000000000000000000000    000000000000000 000000000000000 000000000000000 000000000000000 000000000000000 000000000000000 00000000000000000000000               00000000000                001000SALMAN HAMID                                              MY                           00WADIAHAL-WADIAH                3                                                                                                                                                                                                                                                                                                                                                                                                                                                                                                20240109190727
0000100010210000000000000000004E2700000000000000STDPOINT TOTAL (AS CURRENT)                                    000000000000000    0000000000000000000000000000000000000000000000000000000000000000000    000000000000000 000000000000000 000000000000000 000000000000000 000000000000000 000000000000000 00000000000000000000000               00000000000                001000SALMAN HAMID                                              MY                           00WADIAHAL-WADIAH                3                                                                                                                                                                                                                                                                                                                                                                                                                                                                                                20240109190727
0000100010220000000000000000004E2700000000000000STDPOINT EXPIRED IN 4 MONTHS                                   000000000000000    0000000000000000000000000000000000000000000000000000000000000000000    000000000000000 000000000000000 000000000000000 000000000000000 000000000000000 000000000000000 00000000000000000000000               00000000000                001000SALMAN HAMID                                              MY                           00WADIAHAL-WADIAH                3                                                                                                                                                                                                                                                                                                                                                                                                                                                                                                20240109190727
0000100010230000000000000000001P1000000000000000STDENCIK SALMAN HAMID                                          000000000000000    0000000000000000000000000000000000000000000000000000000000000000000    000000000000000 000000000000000 000000000000000 000000000000000 000000000000000 000000000000000 00000000000000000000000               00000000000        G02     001000SALMAN HAMID                                              MY                            0WADIAHAL-WADIAH                3                                                                                                                                                                                                                                                                                                                                                                                                                                                                                                20240109190727
0000200010010000000000000000001A2000000000000000STDENCIK ENCIK AHMAD @ AHMAD ZAMREE BIN MOHD ZAIN              000000000000000    0000000000000000000000000000000000000000000000000000000000000000000    000000000000000 000000000000000 000000000000000 000000000000000 000000000000000 000000000000000 00000000000000000000000               00000000000                001000AAA                                                       MY                           00WADIAHAL-WADIAH                0                                                                                                                                                                                                                                                                                                                                                                                                                                                                                                20240109190727
0000200010020000000000000000001A2000000000000000STD                                                            000000000000000    0000000000000000000000000000000000000000000000000000000000000000000    000000000000000 000000000000000 000000000000000 000000000000000 000000000000000 000000000000000 00000000000000000000000               00000000000                001000AAA                                                       MY                           00WADIAHAL-WADIAH                0                                                                                                                                                                                                                                                                                                                                                                                                                                                                                                20240109190727
0000200010030000000000000000001A2000000000000000STD                                                            000000000000000    0000000000000000000000000000000000000000000000000000000000000000000    000000000000000 000000000000000 000000000000000 000000000000000 000000000000000 000000000000000 00000000000000000000000               00000000000                001000AAA                                                       MY                           00WADIAHAL-WADIAH                0                                                                                                                                                                                                                                                                                                                                                                                                                                                                                                20240109190727
0000200010040000000000000000001A2000000000000000STD                                                            000000000000000    0000000000000000000000000000000000000000000000000000000000000000000    000000000000000 000000000000000 000000000000000 000000000000000 000000000000000 000000000000000 00000000000000000000000               00000000000                001000AAA                                                       MY                           00WADIAHAL-WADIAH                0                                                                                                                                                                                                                                                                                                                                                                                                                                                                                                20240109190727
0000200010050000000000000000001A2000000000000000STD                                                            000000000000000    0000000000000000000000000000000000000000000000000000000000000000000    000000000000000 000000000000000 000000000000000 000000000000000 000000000000000 000000000000000 00000000000000000000000               00000000000                001000AAA                                                       MY                           00WADIAHAL-WADIAH                0                                                                                                                                                                                                                                                                                                                                                                                                                                                                                                20240109190727
0000200010060000000000000000001A2000000000000000STD                                                            000000000000000    0000000000000000000000000000000000000000000000000000000000000000000    000000000000000 000000000000000 000000000000000 000000000000000 000000000000000 000000000000000 00000000000000000000000               00000000000                001000AAA                                                       MY                           00WADIAHAL-WADIAH                0                                                                                                                                                                                                                                                                                                                                                                                                                                                                                                20240109190727
0000200010070000000000000000002B2000000000000000STDSILA LAYARI WWW.BANKISLAM.COM.MY UNTUK MENDAPATKAN INFO TERK000000000000000    0000000000000000000000000000000000000000000000000000000000000000000    000000000000000 000000000000000 000000000000000 000000000000000 000000000000000 000000000000000 00000000000000000000000               00000000000                001000AAA                                                       MY                           00WADIAHAL-WADIAH                0                                                                                                                                                                                                                                                                                                                                                                                                                                                                                                20240109190727
0000200010080000000000000000002B2000000000000000STDINI BERKENAAN TERMA DAN SYARAT KAD KREDIT-I BANK ISLAM.     000000000000000    0000000000000000000000000000000000000000000000000000000000000000000    000000000000000 000000000000000 000000000000000 000000000000000 000000000000000 000000000000000 00000000000000000000000               00000000000                001000AAA                                                       MY                           00WADIAHAL-WADIAH                0                                                                                                                                                                                                                                                                                                                                                                                                                                                                                                20240109190727
0000200010090000000000000000002B2000000000000000STD                                                            000000000000000    0000000000000000000000000000000000000000000000000000000000000000000    000000000000000 000000000000000 000000000000000 000000000000000 000000000000000 000000000000000 00000000000000000000000               00000000000                001000AAA                                                       MY                           00WADIAHAL-WADIAH                0                                                                                                                                                                                                                                                                                                                                                                                                                                                                                                20240109190727
0000200010100000000000000000002B2000000000000000STD                                                            000000000000000    0000000000000000000000000000000000000000000000000000000000000000000    000000000000000 000000000000000 000000000000000 000000000000000 000000000000000 000000000000000 00000000000000000000000               00000000000                001000AAA                                                       MY                           00WADIAHAL-WADIAH                0                                                                                                                                                                                                                                                                                                                                                                                                                                                                                                20240109190727
0000200010110000000000000000002B2000000000000000STD                                                            000000000000000    0000000000000000000000000000000000000000000000000000000000000000000    000000000000000 000000000000000 000000000000000 000000000000000 000000000000000 000000000000000 00000000000000000000000               00000000000                001000AAA                                                       MY                           00WADIAHAL-WADIAH                0                                                                                                                                                                                                                                                                                                                                                                                                                                                                                                20240109190727
0000200010120000000000000000002F2000000000000000STD19101280000                                                 000000000000000    0000000000000000000000000000000000000000000000000000000000000000000    000000000000000 000000000000000 000000000000000 000000000000000 000000000000000 000000000000000 00000000000000000000000               00000000000                002000AAA                                                       MY                           00WADIAHAL-WADIAH                3                                                                                                                                                                                                                                                                                                                                                                                                                                                                                                20240109190727
0000200010130000000000000000002G2000000000000000STD19101280014                                                 000000000000000    0000000000000000000000000000000000000000000000000000000000000000000    000000000000000 000000000000000 000000000000000 000000000000000 000000000000000 000000000000000 00000000000000000000000               00000000000                002000AAA                                                       MY                           00WADIAHAL-WADIAH                3                                                                                                                                                                                                                                                                                                                                                                                                                                                                                                20240109190727
0000200010140005422610000000617H2100000000000000STDPREVIOUS BALANCE                                            000000000080574    0000000000000000000000000000000000000000000000000000000000000000000    000000000000000 000000000000000 000000000000000 000000000000000 000000000000000 000000000000000 00000000000000000000000               00000000000                002000AAA                                                       MY                           00WADIAHAL-WADIAH                3                                                                                                                                                                                                                                                                                                                                                                                                                                                                                                20240109190727
0000200010150005422610000000617H2000000000000000STD5422 6100 0000 0617                                         000000002400000    0005422610000000617000000000000000000000000000000000000000000000000    000000000000000 000000000000000 000000000000000 000000000000000 000000000000000 000000000000000 00000000000000000000000               00000000000                002000AAA                                                       MY                           00WADIAHAL-WADIAH                3                                                                                                                                                                                                                                                                                                                                                                                                                                                                                                20240109190727
0000200010000005422610000000617H2800000000000000STD5422 6100 0000 0617                                         000000002400000    0005422610000000617000000000000000000000000000000000000000000000000    000000000000000 000000000000000 000000000000000 000000000000000 000000000000000 000000000000000 00000000000000000000000               00000000000                002000AAA                                                       MY                           00WADIAHAL-WADIAH                3                                                                                                                                                                                                                                                                                                                                                                                                                                                                                                20240109190727
0000200010010005422610000000617I2012307151230715STDRETAIL PROFIT                                               000000000000424    0000000000019101280000000000000000000000000000000000000000000000000    000000000000000 000000000000000 000000000000000 000000000000000 000000000000000 000000000000000 00000000000000000000000               00000000000                001000AAA                                                       MY ENCIK AHMAD @ AHMAD ZAMREE10WADIAHAL-WADIAH                3                                                                                                                                                                                                                                                                                                                                                                                                                                                                                                20240109190727
0000200010019999999999999999001L2000000000000000STDSUB TOTAL                                                   000000000080998    0000000000000000000000000000000000000000000000000000000000000000000    000000000000000 000000000000000 000000000000000 000000000000000 000000000000000 000000000000000 00000000000000000000000               00000000000                002000AAA                                                       MY                           00WADIAHAL-WADIAH                3                                                                                                                                                                                                                                                                                                                                                                                                                                                                                                20240109190727
0000200010029999999999999999002M2000000000000000STDPRT                                                         000000000000424    0000000000000000000000000000000000000000000000000000000000000000000 PRT000000000080574 000000000000000 000000000000000 000000000000424 000000000000000 000000000000000 00000000000000000000000               00000000000                001000AAA                                                       MY                           00WADIAHAL-WADIAH                3                                                                                                                                                                                                                                                                                                                                                                                                                                                                                                20240109190727
0000200010039999999999999999003N2000000000000000STDCREDIT LIMIT                                                000000002400000    0000000000000000000000000000000000000000000000000000000000000000000    000000000000000 000000000000000 000000000000000 000000000000000 000000000000000 000000000000000 00000000000000000000000               00000000000                001000AAA                                                       MY                           00WADIAHAL-WADIAH                3                                                                                                                                                                                                                                                                                                                                                                                                                                                                                                20240109190727
0000200010049999999999999999004N2200000000000000STDPAST DUE                                                    000000000065097    0000000000000000000000000000000000000000000000000000000000000000000    000000000000000 000000000000000 000000000000000 000000000000000 000000000000000 000000000000000 00000000000000000000000               00000000000                001000AAA                                                       MY                           00WADIAHAL-WADIAH                3                                                                                                                                                                                                                                                                                                                                                                                                                                                                                                20240109190727
0000200010059999999999999999005N2400000000000000STDMINIMUM AMOUNT DUE                                          000000000065097    0000000000000000000000000000000000000000000000000000000000000000000    000000000000000 000000000000000 000000000000000 000000000000000 000000000000000 000000000000000 00000000000000000000000               00000000000                001000AAA                                                       MY                           00WADIAHAL-WADIAH                3                                                                                                                                                                                                                                                                                                                                                                                                                                                                                                20240109190727
0000200010069999999999999999006O2000000000000000STD                                                            000000000000000    0000000000000000000000000000000000000000000000000000000000000000000    000000000000000 000000000000000 000000000000000 000000000000000 000000000000000 000000000000000 00000000000000000000000               00000000000                001000AAA                                                       MY                           00WADIAHAL-WADIAH                3                                                                                                                                                                                                                                                                                                                                                                                                                                                                                                20240109190727
0000200010079999999999999999007O2000000000000000STD                                                            000000000000000    0000000000000000000000000000000000000000000000000000000000000000000    000000000000000 000000000000000 000000000000000 000000000000000 000000000000000 000000000000000 00000000000000000000000               00000000000                001000AAA                                                       MY                           00WADIAHAL-WADIAH                3                                                                                                                                                                                                                                                                                                                                                                                                                                                                                                20240109190727
0000200010089999999999999999008O2000000000000000STD                                                            000000000000000    0000000000000000000000000000000000000000000000000000000000000000000    000000000000000 000000000000000 000000000000000 000000000000000 000000000000000 000000000000000 00000000000000000000000               00000000000                001000AAA                                                       MY                           00WADIAHAL-WADIAH                3                                                                                                                                                                                                                                                                                                                                                                                                                                                                                                20240109190727
0000200010099999999999999999009O2000000000000000STD                                                            000000000000000    0000000000000000000000000000000000000000000000000000000000000000000    000000000000000 000000000000000 000000000000000 000000000000000 000000000000000 000000000000000 00000000000000000000000               00000000000                001000AAA                                                       MY                           00WADIAHAL-WADIAH                3                                                                                                                                                                                                                                                                                                                                                                                                                                                                                                20240109190727
0000200010109999999999999999010O2000000000000000STD                                                            000000000000000    0000000000000000000000000000000000000000000000000000000000000000000    000000000000000 000000000000000 000000000000000 000000000000000 000000000000000 000000000000000 00000000000000000000000               00000000000                001000AAA                                                       MY                           00WADIAHAL-WADIAH                3                                                                                                                                                                                                                                                                                                                                                                                                                                                                                                20240109190727
0000200010119999999999999999011Q2000000000000000STDKETAHUI TANGGUNGJAWAB & LIABILITI AHLI KAD (DEBIT-I & KREDIT000000000000000    0000000000000000000000000000000000000000000000000000000000000000000    000000000000000 000000000000000 000000000000000 000000000000000 000000000000000 000000000000000 00000000000000000000000               00000000000                001000AAA                                                       MY                           00WADIAHAL-WADIAH                3                                                                                                                                                                                                                                                                                                                                                                                                                                                                                                20240109190727
0000200010129999999999999999012Q2000000000000000STD-I) UNTUK MENGURANGKAN RISIKO URUS NIAGATANPA KEBENARAN. INF000000000000000    0000000000000000000000000000000000000000000000000000000000000000000    000000000000000 000000000000000 000000000000000 000000000000000 000000000000000 000000000000000 00000000000000000000000               00000000000                001000AAA                                                       MY                           00WADIAHAL-WADIAH                3                                                                                                                                                                                                                                                                                                                                                                                                                                                                                                20240109190727
0000200010139999999999999999013Q2000000000000000STDO LANJUT, HTTPS://WWW.BANKISLAM.COM/TGJWBAHLIKAD-I/         000000000000000    0000000000000000000000000000000000000000000000000000000000000000000    000000000000000 000000000000000 000000000000000 000000000000000 000000000000000 000000000000000 00000000000000000000000               00000000000                001000AAA                                                       MY                           00WADIAHAL-WADIAH                3                                                                                                                                                                                                                                                                                                                                                                                                                                                                                                20240109190727
0000200010149999999999999999014Q2000000000000000STD                                                            000000000000000    0000000000000000000000000000000000000000000000000000000000000000000    000000000000000 000000000000000 000000000000000 000000000000000 000000000000000 000000000000000 00000000000000000000000               00000000000                001000AAA                                                       MY                           00WADIAHAL-WADIAH                3                                                                                                                                                                                                                                                                                                                                                                                                                                                                                                20240109190727
0000200010159999999999999999015Q2000000000000000STD                                                            000000000000000    0000000000000000000000000000000000000000000000000000000000000000000    000000000000000 000000000000000 000000000000000 000000000000000 000000000000000 000000000000000 00000000000000000000000               00000000000                001000AAA                                                       MY                           00WADIAHAL-WADIAH                3                                                                                                                                                                                                                                                                                                                                                                                                                                                                                                20240109190727
0000200010160000000000000000006F2100000000000000STDPAYMENT ADVICE                                              000000000000000    0005422610000000617000000000000191012812307151230804000000000065097    000000000000000 000000000000000 000000000000000 000000000000000 000000000080998 000000000000000 00000000000000000000000               00000000000                002000AAA                                                       MY                           00WADIAHAL-WADIAH                0                                                                                                                                                                                                                                                                                                                                                                                                                                                                                                20240109190727
0000200010170000000000000000004E2000000000000000STDTRANSACTION SUMMARY                                         000000000000000    0000000000000000000000000000000000000000000000000000000000000065097    000000000080574 000000000000000 000000000000000 000000000000424 000000000080998 000000000000000 00000000000000000000000               00000000000                001000AAA                                                       MY                           00WADIAHAL-WADIAH                0                                                                                                                                                                                                                                                                                                                                                                                                                                                                                                20240109190727
0000200010180000000000000000004E2700000000000000STDPOINT CARRY FROM PREVIOUS MONTH                             000000000000000    0000000000000000000000000000000000000000000000000000000000000000000    000000000000000 000000000000000 000000000000000 000000000000000 000000000000000 000000000000000 00000000000000000000000               00000000000                001000AAA                                                       MY                           00WADIAHAL-WADIAH                3                                                                                                                                                                                                                                                                                                                                                                                                                                                                                                20240109190727
0000200010190000000000000000004E2700000000000000STDPOINT EARN (CURRENT MONTH)                                  000000000000000    0000000000000000000000000000000000000000000000000000000000000000000    000000000000000 000000000000000 000000000000000 000000000000000 000000000000000 000000000000000 00000000000000000000000               00000000000                001000AAA                                                       MY                           00WADIAHAL-WADIAH                3                                                                                                                                                                                                                                                                                                                                                                                                                                                                                                20240109190727
0000200010200000000000000000004E2700000000000000STDPOINT REDEEM (CURRENT MONTH)                                000000000000000    0000000000000000000000000000000000000000000000000000000000000000000    000000000000000 000000000000000 000000000000000 000000000000000 000000000000000 000000000000000 00000000000000000000000               00000000000                001000AAA                                                       MY                           00WADIAHAL-WADIAH                3                                                                                                                                                                                                                                                                                                                                                                                                                                                                                                20240109190727
0000200010210000000000000000004E2700000000000000STDPOINT TOTAL (AS CURRENT)                                    000000000000000    0000000000000000000000000000000000000000000000000000000000000000000    000000000000000 000000000000000 000000000000000 000000000000000 000000000000000 000000000000000 00000000000000000000000               00000000000                001000AAA                                                       MY                           00WADIAHAL-WADIAH                3                                                                                                                                                                                                                                                                                                                                                                                                                                                                                                20240109190727
0000200010220000000000000000004E2700000000000000STDPOINT EXPIRED IN 4 MONTHS                                   000000000000000    0000000000000000000000000000000000000000000000000000000000000000000    000000000000000 000000000000000 000000000000000 000000000000000 000000000000000 000000000000000 00000000000000000000000               00000000000                001000AAA                                                       MY                           00WADIAHAL-WADIAH                3                                                                                                                                                                                                                                                                                                                                                                                                                                                                                                20240109190727
0000200010230000000000000000001P1000000000000000STDENCIK AHMAD @ AHMAD ZAMREE BIN MOHD ZAIN                    000000000000000    0000000000000000000000000000000000000000000000000000000000000000000    000000000000000 000000000000000 000000000000000 000000000000000 000000000000000 000000000000000 00000000000000000000000               00000000000        G02     001000AAA                                                       MY                            0WADIAHAL-WADIAH                3                                                                                                                                                                                                                                                                                                                                                                                                                                                                                                20240109190727
0000300010010000000000000000001A2000000000000000STDENCIK ENCIK ISMAIL MAIL                                     000000000000000    0000000000000000000000000000000000000000000000000000000000000000000    000000000000000 000000000000000 000000000000000 000000000000000 000000000000000 000000000000000 00000000000000000000000               00000000000                001000                                                          MY                           00WADIAHAL-WADIAH                0                                                                                                                                                                                                                                                                                                                                                                                                                                                                                                20240109190727
0000300010020000000000000000001A2000000000000000STD                                                            000000000000000    0000000000000000000000000000000000000000000000000000000000000000000    000000000000000 000000000000000 000000000000000 000000000000000 000000000000000 000000000000000 00000000000000000000000               00000000000                001000                                                          MY                           00WADIAHAL-WADIAH                0                                                                                                                                                                                                                                                                                                                                                                                                                                                                                                20240109190727
0000300010030000000000000000001A2000000000000000STD                                                            000000000000000    0000000000000000000000000000000000000000000000000000000000000000000    000000000000000 000000000000000 000000000000000 000000000000000 000000000000000 000000000000000 00000000000000000000000               00000000000                001000                                                          MY                           00WADIAHAL-WADIAH                0                                                                                                                                                                                                                                                                                                                                                                                                                                                                                                20240109190727
0000300010040000000000000000001A2000000000000000STD                                                            000000000000000    0000000000000000000000000000000000000000000000000000000000000000000    000000000000000 000000000000000 000000000000000 000000000000000 000000000000000 000000000000000 00000000000000000000000               00000000000                001000                                                          MY                           00WADIAHAL-WADIAH                0                                                                                                                                                                                                                                                                                                                                                                                                                                                                                                20240109190727
0000300010050000000000000000001A2000000000000000STD                                                            000000000000000    0000000000000000000000000000000000000000000000000000000000000000000    000000000000000 000000000000000 000000000000000 000000000000000 000000000000000 000000000000000 00000000000000000000000               00000000000                001000                                                          MY                           00WADIAHAL-WADIAH                0                                                                                                                                                                                                                                                                                                                                                                                                                                                                                                20240109190727
0000300010060000000000000000001A2000000000000000STD                                                            000000000000000    0000000000000000000000000000000000000000000000000000000000000000000    000000000000000 000000000000000 000000000000000 000000000000000 000000000000000 000000000000000 00000000000000000000000               00000000000                001000                                                          MY                           00WADIAHAL-WADIAH                0                                                                                                                                                                                                                                                                                                                                                                                                                                                                                                20240109190727
0000300010070000000000000000002B2000000000000000STDSILA LAYARI WWW.BANKISLAM.COM.MY UNTUK MENDAPATKAN INFO TERK000000000000000    0000000000000000000000000000000000000000000000000000000000000000000    000000000000000 000000000000000 000000000000000 000000000000000 000000000000000 000000000000000 00000000000000000000000               00000000000                001000                                                          MY                           00WADIAHAL-WADIAH                0                                                                                                                                                                                                                                                                                                                                                                                                                                                                                                20240109190727
0000300010080000000000000000002B2000000000000000STDINI BERKENAAN TERMA DAN SYARAT KAD KREDIT-I BANK ISLAM.     000000000000000    0000000000000000000000000000000000000000000000000000000000000000000    000000000000000 000000000000000 000000000000000 000000000000000 000000000000000 000000000000000 00000000000000000000000               00000000000                001000                                                          MY                           00WADIAHAL-WADIAH                0                                                                                                                                                                                                                                                                                                                                                                                                                                                                                                20240109190727
0000300010090000000000000000002B2000000000000000STD                                                            000000000000000    0000000000000000000000000000000000000000000000000000000000000000000    000000000000000 000000000000000 000000000000000 000000000000000 000000000000000 000000000000000 00000000000000000000000               00000000000                001000                                                          MY                           00WADIAHAL-WADIAH                0                                                                                                                                                                                                                                                                                                                                                                                                                                                                                                20240109190727
0000300010100000000000000000002B2000000000000000STD                                                            000000000000000    0000000000000000000000000000000000000000000000000000000000000000000    000000000000000 000000000000000 000000000000000 000000000000000 000000000000000 000000000000000 00000000000000000000000               00000000000                001000                                                          MY                           00WADIAHAL-WADIAH                0                                                                                                                                                                                                                                                                                                                                                                                                                                                                                                20240109190727
0000300010110000000000000000002B2000000000000000STD                                                            000000000000000    0000000000000000000000000000000000000000000000000000000000000000000    000000000000000 000000000000000 000000000000000 000000000000000 000000000000000 000000000000000 00000000000000000000000               00000000000                001000                                                          MY                           00WADIAHAL-WADIAH                0                                                                                                                                                                                                                                                                                                                                                                                                                                                                                                20240109190727
0000300010120000000000000000002F2000000000000000STD19101300000                                                 000000000000000    0000000000000000000000000000000000000000000000000000000000000000000    000000000000000 000000000000000 000000000000000 000000000000000 000000000000000 000000000000000 00000000000000000000000               00000000000                002000                                                          MY                           00WADIAHAL-WADIAH                3                                                                                                                                                                                                                                                                                                                                                                                                                                                                                                20240109190727
0000300010130000000000000000002G2000000000000000STD19101300010                                                 000000000000000    0000000000000000000000000000000000000000000000000000000000000000000    000000000000000 000000000000000 000000000000000 000000000000000 000000000000000 000000000000000 00000000000000000000000               00000000000                002000                                                          MY                           00WADIAHAL-WADIAH                3                                                                                                                                                                                                                                                                                                                                                                                                                                                                                                20240109190727
0000300010140000000000000000000H2100000000000000STDPREVIOUS BALANCE                                            000000000007000    0000000000000000000000000000000000000000000000000000000000000000000    000000000000000 000000000000000 000000000000000 000000000000000 000000000000000 000000000000000 00000000000000000000000               00000000000                002000                                                          MY                           00WADIAHAL-WADIAH                3                                                                                                                                                                                                                                                                                                                                                                                                                                                                                                20240109190727
0000300010150000000000000000000H2000000000000000STD                                                            000000015000000    0000000000000000000000000000000000000000000000000000000000000000000    000000000000000 000000000000000 000000000000000 000000000000000 000000000000000 000000000000000 00000000000000000000000               00000000000                002000                                                          MY                           00WADIAHAL-WADIAH                3                                                                                                                                                                                                                                                                                                                                                                                                                                                                                                20240109190727
0000300010000000000000000000000H2800000000000000STD                                                            000000015000000    0000000000000000000000000000000000000000000000000000000000000000000    000000000000000 000000000000000 000000000000000 000000000000000 000000000000000 000000000000000 00000000000000000000000               00000000000                002000                                                          MY                           00WADIAHAL-WADIAH                3                                                                                                                                                                                                                                                                                                                                                                                                                                                                                                20240109190727
0000300010019999999999999999001L2000000000000000STDSUB TOTAL                                                   000000000007000    0000000000000000000000000000000000000000000000000000000000000000000    000000000000000 000000000000000 000000000000000 000000000000000 000000000000000 000000000000000 00000000000000000000000               00000000000                002000                                                          MY                           00WADIAHAL-WADIAH                3                                                                                                                                                                                                                                                                                                                                                                                                                                                                                                20240109190727
0000300010029999999999999999002M2000000000000000STDPRT                                                         000000000000000    0000000000000000000000000000000000000000000000000000000000000000000 PRT000000000007000 000000000000000 000000000000000 000000000000000 000000000000000 000000000000000 00000000000000000000000               00000000000                001000                                                          MY                           00WADIAHAL-WADIAH                3                                                                                                                                                                                                                                                                                                                                                                                                                                                                                                20240109190727
0000300010039999999999999999003N2000000000000000STDCREDIT LIMIT                                                000000015000000    0000000000000000000000000000000000000000000000000000000000000000000    000000000000000 000000000000000 000000000000000 000000000000000 000000000000000 000000000000000 00000000000000000000000               00000000000                001000                                                          MY                           00WADIAHAL-WADIAH                3                                                                                                                                                                                                                                                                                                                                                                                                                                                                                                20240109190727
0000300010049999999999999999004N2200000000000000STDPAST DUE                                                    000000000007000    0000000000000000000000000000000000000000000000000000000000000000000    000000000000000 000000000000000 000000000000000 000000000000000 000000000000000 000000000000000 00000000000000000000000               00000000000                001000                                                          MY                           00WADIAHAL-WADIAH                3                                                                                                                                                                                                                                                                                                                                                                                                                                                                                                20240109190727
0000300010059999999999999999005N2400000000000000STDMINIMUM AMOUNT DUE                                          000000000007000    0000000000000000000000000000000000000000000000000000000000000000000    000000000000000 000000000000000 000000000000000 000000000000000 000000000000000 000000000000000 00000000000000000000000               00000000000                001000                                                          MY                           00WADIAHAL-WADIAH                3                                                                                                                                                                                                                                                                                                                                                                                                                                                                                                20240109190727
0000300010069999999999999999006O2000000000000000STD                                                            000000000000000    0000000000000000000000000000000000000000000000000000000000000000000    000000000000000 000000000000000 000000000000000 000000000000000 000000000000000 000000000000000 00000000000000000000000               00000000000                001000                                                          MY                           00WADIAHAL-WADIAH                3                                                                                                                                                                                                                                                                                                                                                                                                                                                                                                20240109190727
